:100000000C9440000C9452000C9452000C9452003A
:100010000C9452000C9452000C9452000C94520018
:100020000C9452000C9452000C9452000C94520008
:100030000C9452000C9452000C9452000C945200F8
:100040000C9452000C9452000C9452000C945200E8
:100050000C9452000C9452000C9452000C945200D8
:100060000C9452000C9452000C9452000C945200C8
:100070000C9452000C9452000C9452002023262918
:1000800011241FBECFEFD0E1DEBFCDBF21E0A0E045
:10009000B1E001C01D92A831B207E1F70E947202DF
:1000A0000C94CF020C94000080937C008FE891E0C8
:1000B0000197F1F700C0000086E880937A008091F4
:1000C0007A00806480937A0080917A0086FDFCCF6C
:1000D0008091780020917900922F0895CF93C82FB6
:1000E00060E070E081E20E94B7026C2F617070E006
:1000F00080E10E94B702C1FB662760F970E081E1F0
:100100000E94B702C2FB662760F970E082E10E949C
:10011000B702C3FB662760F970E083E10E94B70273
:10012000C4FB662760F970E082E30E94B702C5FB5A
:10013000662760F970E083E30E94B702C6FB66277A
:1001400060F970E084E30E94B702C7FB662760F99C
:1001500070E085E30E94B70285E38A95F1F700001D
:1001600061E070E081E2CF910C94B70280E090E012
:100170000E94CD0260E070E080E00E949B0260E09F
:1001800070E081E00E949B0260E070E082E00E94EB
:100190009B0260E070E083E00E949B0260E070E000
:1001A00084E00E949B0260E070E085E00E949B0278
:1001B00061E070E080E10E949B0261E070E081E11B
:1001C0000E949B0261E070E082E10E949B0261E07C
:1001D00070E083E10E949B0261E070E082E30E9494
:1001E0009B0261E070E083E30E949B0261E070E0AB
:1001F00084E30E949B0261E070E085E30E949B0221
:1002000061E070E085E20E949B0261E070E084E2C0
:100210000E949B0261E070E083E20E949B0261E029
:1002200070E082E20E949B0261E070E081E20E9445
:100230009B0261E070E080E20E949B0260E070E05F
:1002400080E20E94B70261E070E081E20E94B702A2
:1002500060E070E082E20E94B70284E690E00E94D3
:100260008D0261E070E082E20E94B70261E070E01E
:1002700085E20E94B70260E070E084E20E94B7026B
:1002800060E070E083E20E94B7028FEF0E946E0090
:1002900061E070E083E20E94B7028FEF0C946E0081
:1002A0002F923F924F925F926F927F928F929F9286
:1002B000AF92BF92CF92DF92EF92FF920F931F9374
:1002C000CF93DF9300D00F92CDB7DEB744E1442E39
:1002D00041E0542E50E0A52E51E0B52E64E0C62E2C
:1002E00061E0D62E78E0E72E71E0F72E0CE011E009
:1002F000E0E18E2EE1E09E2E612C712CFFEF2F2E7F
:10030000F3E03F2EB30121E0622785E20E94B702AD
:10031000698284E0860D0E945400F101E81BF90B0C
:10032000CF01F201219131912F012A833B832C5F70
:100330003F4F281739073CF02A813B81245031096F
:10034000821793072CF4F201929382938A839B8302
:10035000F401808191812A813B8182179307F9F012
:1003600060E070E084E20E94B70261E070E083E246
:100370000E94B7028B810E946E0060E070E084E210
:100380000E94B70260E070E083E20E94B7028A81B7
:100390000E946E002A813B81F40120833183898190
:1003A0008E5F0E945400F101E81BF90BCF01F801A8
:1003B0000190F081E02DEA83FB839F012C5F3F4F8A
:1003C000281739072CF028503109821793072CF48D
:1003D000F801808391838A839B83F70180819181D7
:1003E0002A813B8182179307C1F061E070E084E2CB
:1003F0000E94B70260E070E083E20E94B7028A8147
:100400009B8136E0959587953A95E1F70E946E00BD
:100410002A813B81F7012083318389810E94540026
:10042000F6010190F081E02DEA83FB839F012C5FB0
:100430003F4F281739072CF02850310982179307AE
:100440002CF4F601808391838A839B83F50180815C
:1004500091812A813B8182179307C1F061E070E0AE
:1004600084E20E94B70261E070E083E20E94B7027A
:100470008A819B8123E0959587952A95E1F70E94D3
:100480006E002A813B81F50120833183C3010196EF
:1004900032E0A30EB11CE2E0CE0ED11CF2E0EF0E72
:1004A000F11C0E5F1F4F22E0820E911C66246394A4
:1004B000712C029709F026CF0F900F900F90DF91CB
:1004C000CF911F910F91FF90EF90DF90CF90BF9051
:1004D000AF909F908F907F906F905F904F903F90E4
:1004E0002F9008950E94B6000E945001FDCFE82F82
:1004F000E295EF70F0E0E458FF4FE491F0E04281C4
:100500008F7021E030E0B90101C0660F8A95EAF7EB
:10051000862F80958423828308959C0121153105BF
:1005200009F408958FE99FE00197F1F700C00000FA
:1005300021503109F3CF982F9F7021E001C0220F85
:100540009A95EAF7E82FE295EF70F0E0E458FF4F54
:10055000672B31F0E491F0E08181822B8183089553
:10056000E491F0E081812095282321830895672B71
:1005700091F0E82FE295EF70F0E0E458FF4FE4913E
:10058000F0E092818F7021E001C0220F8A95EAF796
:10059000922B928308950C94770278940895F8949E
:0805A0000C94D202F894FFCF85
:00000001FF
