:100000000C9440000C9452000C9452000C9452003A
:100010000C9452000C9452000C9452000C94520018
:100020000C9452000C9452000C9452000C94520008
:100030000C9452000C9452000C9452000C945200F8
:100040000C9452000C9452000C9452000C945200E8
:100050000C9452000C9452000C9452000C945200D8
:100060000C9452000C9452000C9452000C945200C8
:100070000C9452000C9452000C9452002023262918
:1000800011241FBECFEFD0E1DEBFCDBF21E0A0E045
:10009000B1E001C01D92A831B207E1F70E947102E0
:1000A0000C94CE020C94000080937C008FE891E0C9
:1000B0000197F1F700C0000086E880937A008091F4
:1000C0007A00806480937A0080917A0086FDFCCF6C
:1000D00080917800909179000895CF93C82F70E0B7
:1000E00060E081E20E94B5026C2F617070E080E1F7
:1000F0000E94B502C1FB662760F970E081E10E94B1
:10010000B502C2FB662760F970E082E10E94B50289
:10011000C3FB662760F970E083E10E94B502C4FB6F
:10012000662760F970E082E30E94B502C5FB66278E
:1001300060F970E083E30E94B502C6FB662760F9B0
:1001400070E084E30E94B502CC1FCC27CC1F6C2F3B
:1001500070E085E30E94B50285E38A95F1F700001F
:1001600061E070E081E2CF910C94B50290E080E014
:100170000E94CC0270E060E080E00E94990270E092
:1001800060E081E00E94990270E060E082E00E94FD
:10019000990270E060E083E00E94990270E060E004
:1001A00084E00E94990270E060E085E00E9499027C
:1001B00061E070E080E10E94990261E070E081E11D
:1001C0000E94990261E070E082E10E94990261E080
:1001D00070E083E10E94990261E070E082E30E9496
:1001E000990261E070E083E30E94990261E070E0AF
:1001F00084E30E94990261E070E085E30E94990225
:1002000061E070E085E20E94990261E070E084E2C2
:100210000E94990261E070E083E20E94990261E02D
:1002200070E082E20E94990261E070E081E20E9447
:10023000990261E070E080E20E94990270E060E063
:1002400080E20E94B50261E070E081E20E94B502A6
:1002500070E060E082E20E94B50284E690E00E94D5
:100260008B0261E070E082E20E94B50261E070E022
:1002700085E20E94B50270E060E084E20E94B5026F
:1002800070E060E083E20E94B5028FEF0E946D0093
:1002900061E070E083E20E94B5028FEF0C946D0084
:1002A0002F923F924F925F926F927F928F929F9286
:1002B000AF92BF92CF92DF92EF92FF920F931F9374
:1002C000CF93DF9300D00F92CDB7DEB754E1452E28
:1002D00051E0552E60E0A62E61E0B62E74E0C72EE8
:1002E00071E0D72EE8E0EE2EE1E0FE2E0CE011E00A
:1002F000F0E18F2EF1E09F2E712C612C22242A94A4
:10030000A3E03A2EB30121E0622785E20E94B50204
:10031000698284E0860D0E945400F101E81BF90B0C
:10032000CF01F201219131912F013B832A832C5F70
:100330003F4F281739073CF02A813B81245031096F
:100340008217930734F4F2013297918380839B8361
:100350008A83F401808191812A813B8182179307EE
:10036000F9F070E060E084E20E94B50261E070E0C4
:1003700083E20E94B5028B810E946D0070E060E014
:1003800084E20E94B50270E060E083E20E94B50260
:100390008A810E946D002A813B81F4013183208390
:1003A00089818E5F0E945400F101E81BF90BCF0197
:1003B000F8010190F081E02DFB83EA839F012C5F1F
:1003C0003F4F281739072CF028503109821793071F
:1003D0002CF4F801918380839B838A83F7018081C9
:1003E00091812A813B8182179307C1F061E070E01F
:1003F00084E20E94B50270E060E083E20E94B502F0
:100400008A819B8136E0959587953A95E1F70E9420
:100410006D002A813B81F7013183208389810E940D
:1004200054009C01F6010190F081E02DFB83EA83EA
:10043000CF0104968217930724F0089728173907ED
:100440002CF4F601318320833B832A83F5018081DC
:1004500091812A813B8182179307C1F061E070E0AE
:1004600084E20E94B50261E070E083E20E94B5027E
:100470008A819B8123E0959587952A95E1F70E94D3
:100480006D002A813B81F5013183208332E0A30E88
:10049000B11C82E0C80ED11C92E0E90EF11C0E5F87
:1004A0001F4FE2E08E0E911C6A946728B1F40F9002
:1004B0000F900F90DF91CF911F910F91FF90EF90D0
:1004C000DF90CF90BF90AF909F908F907F906F9074
:1004D0005F904F903F902F90089566246394712C05
:1004E00011CF0E94B6000E945001FDCFE82FE29587
:1004F000EF70F0E0E458FF4FE491F0E03281282FF4
:100500002F7081E090E001C0880F2A95EAF780956E
:100510008323828308959C012115310509F40895F0
:100520008FE99FE00197F1F700C0000021503109E9
:10053000F3CFE82F282F2F7081E090E001C0880FC3
:100540002A95EAF7E295EF70F0E0E458FF4F672B49
:1005500031F0E491F0E09181892B81830895E49159
:10056000F0E0918180958923F8CF672B99F0E82FEF
:10057000E295EF70F0E0E458FF4FE491F0E09281F3
:100580008F7021E030E001C0220F8A95EAF7922BAC
:10059000928308950C94760278940895F8940C94BC
:0605A000D102F894FFCF28
:00000001FF
